:020000040800F2
:100000000000022001250008152400081B24000818
:1000100021240008272400082D24000800000000E7
:1000200000000000000000000000000051920008E5
:100030003324000800000000A194000841240008B7
:1000400051250008512500085125000851250008B8
:1000500051250008512500085125000851250008A8
:100060005125000851250008512500085125000898
:100070005125000851250008512500085125000888
:100080005125000851250008512500085125000878
:100090005125000851250008512500085125000868
:1000A0005125000851250008512500085125000858
:1000B0005125000851250008512500085125000848
:1000C0005125000851250008512500085125000838
:1000D0005125000851250008512500085D2400081D
:1000E0005125000851250008512500085125000818
:1000F0005125000851250008512500085125000808
:1001000051250008512500085125000851250008F7
:1001100051250008512500085125000851250008E7
:1001200051250008512500085125000851250008D7
:1001300051250008512500085125000851250008C7
:1001400051250008512500085125000851250008B7
:1001500051250008512500085125000851250008A7
:100160005125000851250008512500085125000897
:100170005125000851250008512500080000000005
:0801800051250008512500087B
:1001900010B5054C237833B9044B13B10448AFF3C1
:1001A00000800123237010BD7400002000000000B7
:1001B000DCBB000808B5034B1BB103490348AFF390
:1001C000008008BD0000000078000020DCBB0008B3
:1001D00001F0FF01102A2BDB10F0070F08D010F8F8
:1001E000013B013A8B422DD010F0070F42B3F6D1FC
:1001F000F0B441EA012141EA014122F007047FF015
:1002000000070023F0E80256083C85EA010586EA6B
:10021000010685FA47F5A3FA87F586FA47F6A5FAA7
:1002200087F68EB9EED1F0BC01F0FF0102F00702B3
:1002300032B110F8013B013A83EA010313B1F8D15E
:100240000020704701387047002D06BF354603383F
:10025000073815F0010F07D1013015F4807F02BF78
:10026000013015F4C03F0130F0BC0138704700BFC9
:1002700081F0004102E000BF83F0004330B54FEA57
:1002800041044FEA430594EA050F08BF90EA020FC4
:100290001FBF54EA000C55EA020C7FEA645C7FEA57
:1002A000655C00F0E2804FEA5454D4EB5555B8BF7A
:1002B0006D420CDD2C4480EA020281EA030382EAEB
:1002C000000083EA010180EA020281EA0303362D7D
:1002D00088BF30BD11F0004F4FEA01314FF4801C50
:1002E0004CEA113102D0404261EB410113F0004F62
:1002F0004FEA03334CEA133302D0524263EB430319
:1003000094EA050F00F0A780A4F10104D5F1200EB6
:100310000DDB02FA0EFC22FA05F2801841F1000111
:1003200003FA0EF2801843FA05F359410EE0A5F1E5
:1003300020050EF1200E012A03FA0EFC28BF4CF016
:10034000020C43FA05F3C01851EBE37101F00045CC
:1003500007D54FF0000EDCF1000C7EEB00006EEBD9
:100360000101B1F5801F1BD3B1F5001F0CD3490863
:100370005FEA30004FEA3C0C04F101044FEA4452BA
:1003800012F5800F80F09A80BCF1004F08BF5FEA41
:10039000500C50F1000041EB045141EA050130BD21
:1003A0005FEA4C0C404141EB0101013C28BFB1F533
:1003B000801FE9D291F0000F04BF01460020B1FA7E
:1003C00081F308BF2033A3F10B03B3F120020CDA51
:1003D0000C3208DD02F1140CC2F10C0201FA0CF02F
:1003E00021FA02F10CE002F11402D8BFC2F1200C94
:1003F00001FA02F120FA0CFCDCBF41EA0C0190404A
:10040000E41AA2BF01EB0451294330BD6FEA040492
:100410001F3C1CDA0C340EDC04F11404C4F120027D
:1004200020FA04F001FA02F340EA030021FA04F38F
:1004300045EA030130BDC4F10C04C4F1200220FAE6
:1004400002F001FA04F340EA0300294630BD21FA24
:1004500004F0294630BD94F0000F83F4801306BFEA
:1004600081F480110134013D4EE77FEA645C18BFDE
:100470007FEA655C29D094EA050F08BF90EA020F75
:1004800005D054EA000C04BF1946104630BD91EA6D
:10049000030F1EBF0021002030BD5FEA545C05D170
:1004A0004000494128BF41F0004130BD14F58004AF
:1004B0003CBF01F5801130BD01F0004545F0FE4123
:1004C00041F470014FF0000030BD7FEA645C1ABF58
:1004D000194610467FEA655C1CBF0B46024650EA8F
:1004E000013406BF52EA033591EA030F41F40021BB
:1004F00030BD00BF90F0000F04BF0021704730B541
:100500004FF4806404F132044FF000054FF0000115
:1005100050E700BF90F0000F04BF0021704730B5D6
:100520004FF4806404F1320410F0004548BF4042AB
:100530004FF000013EE700BF42004FEAE2014FEA00
:1005400031014FEA02701FBF12F07F4393F07F4FDB
:1005500081F06051704732F07F4208BF704793F0DE
:100560007F4F04BF41F40021704730B54FF46074F1
:1005700001F0004521F000411CE700BF50EA0102F4
:1005800008BF704730B54FF000050AE050EA01029D
:1005900008BF704730B511F0004502D5404261EB0D
:1005A00041014FF4806404F132045FEA915C3FF44E
:1005B000D8AE4FF003025FEADC0C18BF03325FEAEB
:1005C000DC0C18BF033202EBDC02C2F1200300FA9C
:1005D00003FC20FA02F001FA03FE40EA0E0021FAC1
:1005E00002F11444BDE600BF70B54FF0FF0C4CF4AF
:1005F000E06C1CEA11541DBF1CEA135594EA0C0F61
:1006000095EA0C0F00F0DEF82C4481EA030621EA9B
:100610004C5123EA4C5350EA013518BF52EA0335D6
:1006200041F4801143F4801338D0A0FB02CE4FF088
:100630000005E1FB02E506F00042E0FB03E54FF0B8
:100640000006E1FB03569CF0000F18BF4EF0010EB0
:10065000A4F1FF04B6F5007F64F5407404D25FEAAC
:100660004E0E6D4146EB060642EAC62141EA55515F
:100670004FEAC52040EA5E504FEACE2EB4F1FD0CA1
:1006800088BFBCF5E06F1ED8BEF1004F08BF5FEA1F
:10069000500E50F1000041EB045170BD06F00046D1
:1006A00046EA010140EA020081EA0301B4EB5C047E
:1006B000C2BFD4EB0C0541EA045170BD41F4801176
:1006C0004FF0000E013C00F3AB8014F1360FDEBF9B
:1006D000002001F0004170BDC4F10004203C35DA77
:1006E0000C341BDC04F11404C4F1200500FA05F3FA
:1006F00020FA04F001FA05F240EA020001F000429B
:1007000021F0004110EBD37021FA04F642EB060110
:100710005EEA430E08BF20EAD37070BDC4F10C043A
:10072000C4F1200500FA04F320FA05F001FA04F2FE
:1007300040EA020001F0004110EBD37041F10001EA
:100740005EEA430E08BF20EAD37070BDC4F12005F5
:1007500000FA05F24EEA020E20FA04F301FA05F25D
:1007600043EA020321FA04F001F0004121FA04F205
:1007700020EA020000EBD3705EEA430E08BF20EAD5
:10078000D37070BD94F0000F0FD101F0004640000F
:1007900041EB010111F4801F08BF013CF7D041EA91
:1007A000060195F0000F18BF704703F00046520095
:1007B00043EB030313F4801F08BF013DF7D043EA66
:1007C0000603704794EA0C0F0CEA135518BF95EA1C
:1007D0000C0F0CD050EA410618BF52EA4306D1D1A3
:1007E00081EA030101F000414FF0000070BD50EAC2
:1007F000410606BF1046194652EA430619D094EA4C
:100800000C0F02D150EA013613D195EA0C0F05D135
:1008100052EA03361CBF104619460AD181EA030189
:1008200001F0004141F0FE4141F470014FF0000041
:1008300070BD41F0FE4141F4780170BD70B54FF0DC
:10084000FF0C4CF4E06C1CEA11541DBF1CEA13555C
:1008500094EA0C0F95EA0C0F00F0A7F8A4EB05043E
:1008600081EA030E52EA03354FEA013100F0888035
:100870004FEA03334FF0805545EA131343EA1263FE
:100880004FEA022245EA111545EA10654FEA0026B3
:100890000EF000419D4208BF964244F1FD0404F56C
:1008A000407402D25B084FEA3202B61A65EB0305C8
:1008B0005B084FEA32024FF480104FF4002CB6EB85
:1008C000020E75EB030E22BFB61A754640EA0C0005
:1008D0005B084FEA3202B6EB020E75EB030E22BF45
:1008E000B61A754640EA5C005B084FEA3202B6EB86
:1008F000020E75EB030E22BFB61A754640EA9C0045
:100900005B084FEA3202B6EB020E75EB030E22BF14
:10091000B61A754640EADC0055EA060E18D04FEAD2
:10092000051545EA16754FEA06164FEAC30343EA72
:1009300052734FEAC2025FEA1C1CC0D111F4801F3F
:100940000BD141EA00014FF000004FF0004CB6E738
:1009500011F4801F04BF01430020B4F1FD0C88BFD7
:10096000BCF5E06F3FF6AFAEB5EB030C04BFB6EBE2
:10097000020C5FEA500C50F1000041EB045170BDD5
:100980000EF0004E4EEA113114EB5C04C2BFD4EB02
:100990000C0541EA045170BD41F480114FF0000E86
:1009A000013C90E645EA060E8DE60CEA135594EA02
:1009B0000C0F08BF95EA0C0F3FF43BAF94EA0C0F05
:1009C0000AD150EA01347FF434AF95EA0C0F7FF47A
:1009D00025AF104619462CE795EA0C0F06D152EACE
:1009E00003353FF4FDAE1046194622E750EA4106B2
:1009F00018BF52EA43067FF4C5AE50EA41047FF4C3
:100A00000DAF52EA43057FF4EBAE12E74FF0FF3C27
:100A100006E000BF4FF0010C02E000BF4FF0010CF8
:100A20004DF804CD4FEA410C7FEA6C5C4FEA430C71
:100A300018BF7FEA6C5C1BD001B050EA410C0CBFC0
:100A400052EA430C91EA030F02BF90EA020F002022
:100A5000704710F1000F91EA030F58BF994208BF89
:100A600090422CBFD8176FEAE37040F00100704746
:100A70004FEA410C7FEA6C5C02D150EA013C07D19D
:100A80004FEA430C7FEA6C5CD6D152EA033CD3D0E8
:100A90005DF8040B704700BF8446104662468C46E2
:100AA0001946634600E000BF01B5FFF7B7FF002815
:100AB00048BF10F1000F01BD4DF808EDFFF7F4FF3E
:100AC0000CBF012000205DF808FB00BF4DF808EDC9
:100AD000FFF7EAFF34BF012000205DF808FB00BFEC
:100AE0004DF808EDFFF7E0FF94BF012000205DF80E
:100AF00008FB00BF4DF808EDFFF7CEFF94BF0120C3
:100B000000205DF808FB00BF4DF808EDFFF7C4FFBB
:100B100034BF012000205DF808FB00BF4FEA410C04
:100B20007FEA6C5C02D150EA013C0AD14FEA430CE7
:100B30007FEA6C5C02D152EA033C02D14FF0000024
:100B400070474FF0010070474FEA410212F5001262
:100B500015D211D56FF47873B3EB625212D94FEA04
:100B6000C12343F0004343EA505311F0004F23FAEE
:100B700002F018BF404270474FF00000704750EA43
:100B8000013005D111F0004008BF6FF00040704700
:100B90004FF00000704700BF4A0011D212F500125A
:100BA00011D20DD56FF47873B3EB62520ED44FEAC5
:100BB000C12343F0004343EA505323FA02F0704745
:100BC0004FF00000704750EA013002D14FF0FF3083
:100BD00070474FF00000704753B94AB9002908BF69
:100BE00000281CBF4FF0FF314FF0FF3000F074B908
:100BF000ADF1080C6DE904CE00F006F8DDF804E074
:100C0000DDE9022304B070472DE9F047089D044652
:100C10008E46002B4DD18A42944669D9B2FA82F2AF
:100C200052B101FA02F3C2F1200120FA01F10CFAEB
:100C300002FC41EA030E94404FEA1C48210CBEFB23
:100C4000F8F61FFA8CF708FB16E341EA034306FBAC
:100C500007F199420AD91CEB030306F1FF3080F03B
:100C60001F81994240F21C81023E63445B1AA4B288
:100C7000B3FBF8F008FB103344EA034400FB07F72A
:100C8000A7420AD91CEB040400F1FF3380F00A816B
:100C9000A74240F207816444023840EA0640E41B60
:100CA00000261DB1D4400023C5E900433146BDE80C
:100CB000F0878B4209D9002D00F0EF800026C5E9AE
:100CC000000130463146BDE8F087B3FA83F6002EC6
:100CD0004AD18B4202D3824200F2F980841A61EB3E
:100CE000030301209E46002DE0D0C5E9004EDDE75C
:100CF00002B9FFDEB2FA82F2002A40F09280A1EB44
:100D00000C014FEA1C471FFA8CFE0126200CB1FB98
:100D1000F7F307FB131140EA01410EFB03F0884291
:100D200008D91CEB010103F1FF3802D2884200F21E
:100D3000CB804346091AA4B2B1FBF7F007FB1011B0
:100D400044EA01440EFB00FEA64508D91CEB04044E
:100D500000F1FF3102D2A64500F2BB800846A4EBA9
:100D60000E0440EA03409CE7C6F12007B34022FA94
:100D700007FC4CEA030C20FA07F401FA06F31C43C3
:100D8000F9404FEA1C4900FA06F3B1FBF9F8200CD0
:100D90001FFA8CFE09FB181140EA014108FB0EF016
:100DA000884202FA06F20BD91CEB010108F1FF3A66
:100DB00080F08880884240F28580A8F10208614472
:100DC000091AA4B2B1FBF9F009FB101144EA014180
:100DD00000FB0EFE8E4508D91CEB010100F1FF342B
:100DE0006CD28E456AD90238614440EA0840A0FBC3
:100DF0000294A1EB0E01A142C846A64656D353D099
:100E00005DB1B3EB080261EB0E0101FA07F722FABC
:100E100006F3F1401F43C5E9007100263146BDE8E5
:100E2000F087C2F12003D8400CFA02FC21FA03F348
:100E3000914001434FEA1C471FFA8CFEB3FBF7F0C9
:100E400007FB10360B0C43EA064300FB0EF69E42EE
:100E500004FA02F408D91CEB030300F1FF382FD287
:100E60009E422DD9023863449B1B89B2B3FBF7F62F
:100E700007FB163341EA034106FB0EF38B4208D908
:100E80001CEB010106F1FF3816D28B4214D9023E49
:100E90006144C91A46EA004638E72E46284605E767
:100EA0000646E3E61846F8E64B45A9D2B9EB020838
:100EB00064EB0C0E0138A3E74646EAE7204694E7C8
:100EC0004046D1E7D0467BE7023B614432E73046FB
:100ED00009E76444023842E7704700BF80B500AFBD
:100EE00001F038FB00F06EF800F064FB00F08EFAC1
:100EF00000F0E4F900F044F900F032FB00F032FABF
:100F000000F010F900F0BCF809F020FA04221B49A7
:100F10001B4805F054F84FF400731946194808F0BF
:100F2000EDFF06F019F8184A0021184806F05EF89F
:100F30000346174A1360174A0021174806F056F86F
:100F40000346164A1360164A0021164806F04EF86A
:100F50000346154A1360154A0021154806F046F865
:100F60000346144A1360144A0021144806F03EF860
:100F70000346134A136006F013F8FEE7C002002090
:100F80004C020020900000208CBC0008AD17000827
:100F900090020020B0BC00083D1800089402002018
:100FA000D4BC00087918000898020020F8BC00089A
:100FB0002D1D00089C0200201CBD00084D1F0008CC
:100FC000A002002080B594B000AF07F120033022CA
:100FD0000021184609F07EFA07F10C0300221A607E
:100FE0005A609A60DA601A610023BB60224B1B6C66
:100FF000214A43F0805313641F4B1B6C03F0805352
:10100000BB60BB6800237B601C4B1B681B4A43F41E
:1010100080431360194B1B6803F480437B607B683B
:1010200002233B620123FB6210233B630023BB636B
:1010300007F12003184603F07FFA0346002B01D086
:1010400000F0A4FF0F23FB6000233B6100237B61C2
:101050000023BB610023FB6107F10C03002118464C
:1010600003F0E2FC0346002B01D000F08FFF00BF2D
:101070005037BD4680BD00BF0038024000700040C0
:1010800080B584B000AF3B4600221A605A609A6077
:10109000DA60214B214A1A601F4B00225A601E4B16
:1010A00000229A601C4B00221A611B4B00221A7608
:1010B000194B002283F82020174B0022DA62164BCE
:1010C000174A9A62144B0022DA60134B0122DA614C
:1010D000114B002283F830200F4B01225A610E4839
:1010E00001F0CEFA0346002B01D000F04FFF0A2397
:1010F0003B6001237B600023BB603B4619460648EA
:1011000001F0A0FC0346002B01D000F03FFF00BF20
:101110001037BD4680BD00BF900000200020014078
:101120000100000F80B500AF124B134A1A60114B3B
:10113000124A5A600F4B00229A600E4B0022DA606E
:101140000C4B4FF480421A610A4B00225A61094B42
:1011500000229A61074B0022DA61064B00221A62D4
:10116000044802F001FA0346002B01D000F00EFF04
:1011700000BF80BDD800002000540040A0860100C0
:1011800080B596B000AF07F1480300221A605A609C
:101190009A60DA6007F1400300221A605A6007F192
:1011A000240300221A605A609A60DA601A615A6158
:1011B0009A613B1D20220021184609F08BF93D4B16
:1011C0003D4A1A603B4BA0225A603A4B00229A607B
:1011D000384B4FF47A72DA60364B00221A61354B85
:1011E00000225A61334B80229A61324803F0FCFDA1
:1011F0000346002B01D000F0C9FE4FF48053BB64BE
:1012000007F1480319462B4804F054F90346002B14
:1012100001D000F0BBFE274803F035FE0346002B4B
:1012200001D000F0B3FE00233B6400237B6407F190
:10123000400319461F4804F015FD0346002B01D05A
:1012400000F0A4FE60237B620023BB620023FB62EC
:1012500000237B630023BB630023FB6307F12403AC
:101260000C221946134804F063F80346002B01D002
:1012700000F08CFE00237B600023BB600023FB603A
:1012800000233B6100237B614FF40053BB610023CB
:101290003B623B1D1946074804F060FD0346002BE6
:1012A00001D000F073FE034801F02AF800BF583760
:1012B000BD4680BD2C0100200000014080B58CB0EF
:1012C00000AF07F10C0324220021184609F002F9AF
:1012D0003B1D00221A605A60214B4FF080421A6079
:1012E0001F4B00225A601E4B00229A601C4B4FF08D
:1012F000FF32DA601A4B00221A61194B00229A6100
:101300000323FB6000233B6101237B610023BB615E
:101310000A23FB6100233B6201237B620023BB6243
:101320000023FB6207F10C0319460D4803F0CCFEC5
:101330000346002B01D000F029FE00237B60002330
:10134000BB603B1D1946064804F08CFC0346002B8D
:1013500001D000F01BFE00BF3037BD4680BD00BF8E
:101360007401002080B58CB000AF07F10C0324227B
:101370000021184609F0AEF83B1D00221A605A60A1
:10138000204B214A1A601F4B00225A601D4B00223D
:101390009A601C4B4FF6FF72DA601A4B00221A61FA
:1013A000184B00229A610323FB6000233B61012359
:1013B0007B610023BB610023FB6100233B620123AF
:1013C0007B620023BB620023FB6207F10C0319461A
:1013D0000C4803F079FE0346002B01D000F0D6FD47
:1013E00000237B600023BB603B1D1946054804F0C9
:1013F00039FC0346002B01D000F0C8FD00BF303798
:10140000BD4680BDBC0100200004004080B596B000
:1014100000AF07F1480300221A605A609A60DA6050
:1014200007F1400300221A605A6007F124030022EA
:101430001A605A609A60DA601A615A619A613B1DBB
:1014400020220021184609F045F8434B434A1A6010
:10145000414B00225A60404B00229A603E4B41F6BD
:101460001F42DA603C4B00221A613B4B00225A615A
:10147000394B00229A61384803F0B6FC0346002B32
:1014800001D000F083FD4FF48053BB6407F14803A3
:101490001946314804F00EF80346002B01D000F045
:1014A00075FD2D4803F0EFFC0346002B01D000F042
:1014B0006DFD00233B6400237B6407F14003194664
:1014C000254804F0CFFB0346002B01D000F05EFD61
:1014D00060237B620023BB620023FB6200233B632B
:1014E00000237B630023BB630023FB6307F124031A
:1014F00000221946184803F01BFF0346002B01D0B9
:1015000000F044FD07F1240304221946124803F0B9
:101510000FFF0346002B01D000F038FD00237B6055
:101520000023BB600023FB6000233B6100237B6141
:101530004FF40053BB6100233B623B1D1946064834
:1015400004F00CFC0346002B01D000F01FFD00BF8F
:101550005837BD4680BD00BF040200200004014092
:1015600080B500AF114B124A1A60104B4FF4E132B4
:101570005A600E4B00229A600C4B0022DA600B4B33
:1015800000221A61094B0C225A61084B00229A6111
:10159000064B0022DA61054804F032FC0346002BBA
:1015A00001D000F0F3FC00BF80BD00BF4C02002062
:1015B0000048004080B58AB000AF07F11403002254
:1015C0001A605A609A60DA601A6100233B61314BFD
:1015D0001B6B304A43F0100313632E4B1B6B03F05D
:1015E00010033B613B690023FB602A4B1B6B294ABC
:1015F00043F004031363274B1B6B03F00403FB60EE
:10160000FB680023BB60234B1B6B224A43F00103A2
:101610001363204B1B6B03F00103BB60BB6800230B
:101620007B601C4B1B6B1B4A43F002031363194B7B
:101630001B6B03F002037B607B6800224FF4BC61EC
:10164000154801F05DFF00223C21144801F058FFCD
:101650004FF4BC637B610123BB610023FB6100236A
:101660003B6207F1140319460B4801F0ADFD3C2322
:101670007B610123BB610023FB6102233B6207F115
:1016800014031946054801F09FFD00BF2837BD46E9
:1016900080BD00BF00380240001002400000024040
:1016A00080B582B000AF78604FF6FF730A22074919
:1016B000074804F0F2FB00F00FF804220349044845
:1016C00004F07DFC00BF0837BD4680BDC00200208D
:1016D0004C02002000000000B0B582B000AF284BE3
:1016E0001A78284B1A70284B00221A8003237B603B
:1016F00039E0234A7B6813441B78303B1846FEF7D9
:1017000009FF04460D467B68C3F103031846FEF744
:1017100001FF02460B4643EC112B9FED170B09F01E
:1017200041FB53EC102B20462946FEF75DFF024695
:101730000B4614461D46144B1B881846FEF7EAFE5E
:1017400002460B4620462946FEF798FD02460B4608
:1017500010461946FFF720FA03469AB20A4B1A8040
:101760007B68013B7B607B68002BC2DC00BF00BF55
:101770000837BD46B0BD00BF000000000000244097
:10178000C0020020D4020020D602002080B500AFA5
:10179000044B1B68184608F0F9FB0346024A136025
:1017A00000BF80BDE4020020E802002080B58AB0BE
:1017B00000AF78601D4B00221A8003230322002112
:1017C0001B4808F0BFF94FF480611A4801F0B1FEE0
:1017D00007F1200303220021154808F03DFABB8CD5
:1017E000B3F5004F0AD9BA8C104BB3F900309BB255
:1017F00013449BB21AB20D4B1A8009E0BA8C0B4B02
:10180000B3F900309BB213449BB21AB2074B1A8053
:10181000064BB3F900301A46BB8C07F10C000649A1
:1018200008F060FE642005F073FCCCE7A402002001
:10183000D80000200010024030BC000880B58AB0FB
:1018400000AF78600A4B1A6807F108030949184687
:1018500008F048FE07F108031A4614210A2008F090
:1018600043FD08F0CDFB322005F052FCEAE700BF53
:10187000E80200203CBC000880B586B000AF78606C
:101880000021574803F058FB0421554803F054FB4E
:101890000C21544803F050FB524B1B6896221A64EB
:1018A000514B1B78542B00F0C6804F4B1B78572BA5
:1018B00026D14D4B1B78FB754C4B00221A80494BAF
:1018C0001B6896221A644A4B1B881A4613465B0013
:1018D00013441A01D31A474A1360454B1B881A4612
:1018E00013465B0013441A01D31A434A1360434B57
:1018F0004FF47A721A80424B4FF47A721A809AE04F
:10190000394B1B784D2B26D1374B1B78FB75374B4A
:1019100000221A80334B1B6896221A64344B1B88B2
:101920001A4613465B0013441A01D31A314A136056
:101930002F4B1B881A4613465B0013441A01D31A17
:101940002D4A13602D4B4FF4FA621A802C4B4FF442
:10195000FA621A806FE0244B1B78532B26D1224B5E
:101960001B78FB75214B00221A801E4B1B689622A8
:101970001A641F4B1B881A4613465B0013441A0156
:10198000D31A1C4A13601A4B1B881A4613465B0075
:1019900013441A01D31A184A1360184B4FF47A7281
:1019A0001A80174B4FF47A721A8044E00E4B1B7862
:1019B000452B03D00C4B1B78442B23D10A4B1B78AF
:1019C000FB750A4B00221A80064B1B68D2221A6450
:1019D0000A4B4FF4FA621A80094BFA221A802AE065
:1019E000040200202C010020D4020020A4020020C8
:1019F000D6020020DC020020E0020020D8020020F5
:101A0000DA0200206B4B1B78512B03D0694B1B78FB
:101A1000412B10D1674B1B78FB75674B00221A8056
:101A2000664B1B6878221A64654BFA221A80654B54
:101A30004FF4C8621A805F4B1B78512B0BD05D4B63
:101A40001B78572B07D05B4B1B78452B03D0594B8A
:101A50001B784D2B13D1002204215B4801F050FD6F
:101A600001220821584801F04BFD00222021564850
:101A700001F046FD01221021534801F041FD4D4B7C
:101A80001B78412B07D04B4B1B78532B03D0494B72
:101A90001B78442B13D1012204214B4801F030FD67
:101AA00000220821484801F02BFD01222021464850
:101AB00001F026FD00221021434801F021FDFB7DAD
:101AC000572B02D0FB7D532B1DD1404B1B68002BA5
:101AD00003DB3F4B1B68002B15DA394B00221A80C1
:101AE000384B00221A80354B1B6896221A64394BFA
:101AF000FB755023FB7307F10F014FF6FF730122B3
:101B0000354804F0CAF9FB7D4D2B1BD1334B1B68C4
:101B100040F21452934215DD294B00221A80294BC2
:101B200000221A80254B1B6896221A64294BFB75EC
:101B30004D23BB7307F10E014FF6FF7301222648B8
:101B400004F0ABF9FB7D572B02D0FB7D4D2B18D158
:101B5000194BB3F90030012B04DD184B1B689B2295
:101B60001A640EE0144BB3F90030B3F1FF3F04DA0E
:101B7000124B1B6891221A6403E0104B1B689622DB
:101B80001A64FB7D532B2FD10B4BB3F90030012B83
:101B900004DD0A4B1B6891221A6425E0064BB3F959
:101BA0000030B3F1FF3F1BDA044B1B689B221A6421
:101BB0001AE000BFD4020020A40200202C01002063
:101BC000D8020020DA02002000000240DC020020DF
:101BD000E002002044BC00084C020020E802002083
:101BE000484B1B6896221A64FB7D452B02D0FB7D77
:101BF000412B2AD1444BB3F900301946434B1B8883
:101C00001A464FF4577302FB03F3414A82FB030267
:101C10001A449211DB17D31A0B44002B15DA3D4BF3
:101C200000221A803C4B00221A80364B1B689622F9
:101C30001A643A4BFB7550237B7307F10D014FF685
:101C4000FF730122364804F028F9FB7D512B02D0A6
:101C5000FB7D442B2AD12C4BB3F9003019462B4B7A
:101C60001B881A464FF4577302FB03F3284A82FB82
:101C700003021A449211DB179B1A0B44002B15DD4B
:101C8000244B00221A80244B00221A801D4B1B6813
:101C900096221A64214BFB7550233B7307F10C010C
:101CA0004FF6FF7301221E4804F0F7F81D4B1B7816
:101CB000502B15D1174B00221A80174B00221A8087
:101CC000104B1B6896221A64144BFB755023FB7251
:101CD00007F10B014FF6FF730122114804F0DDF804
:101CE000104B58221A700B4B1A880F4B1B685A6303
:101CF000094B1A880C4B1B689A63012005F008FAFF
:101D0000CEE500BF2C010020A4020020D602002056
:101D1000B7600BB6D8020020DA02002044BC0008ED
:101D20004C020020D40200200402002080B592B0B2
:101D300000AF78603C21764803F06CFA3C2175488E
:101D400003F068FA724B1B685B6A1A46724B1A60A2
:101D500000F066FC78646F4B1B685B6A1A466F4B39
:101D60001A6000F05DFC02467B6CD31A642BF8D934
:101D7000674B1B685B6A1A46694B1A60654B1B68A8
:101D80005B6A1A46674B1A60674B1A68674B1B6899
:101D900007F11C00664908F0A5FB07F11C031A4671
:101DA00028210A2008F0A0FA5B4B1A685C4B1B68DC
:101DB0009A4206D15F4B00221A605F4B00221A60E4
:101DC00067E0534B1B681B6803F01003102B30D1E6
:101DD000534B1A68504B1B689A4207DA4E4B1A68ED
:101DE0004F4B1B68D31A534A136009E04C4B1B68D6
:101DF000C3F57F43FF33484A126813444D4A1360CA
:101E0000484B1A68454B1B689A4207DD454B1A68D8
:101E1000424B1B68D31A484A13603AE03F4B1B6899
:101E2000C3F57F43FF333F4A12681344424A1360AD
:101E30002FE03B4B1A68384B1B689A4207DD384B42
:101E40001A68354B1B68D31A3A4A136009E0324BC3
:101E50001B68C3F57F43FF33314A12681344354A88
:101E60001360304B1A682D4B1B689A4207DA2B4BD4
:101E70001A682C4B1B68D31A2F4A136009E0294BB0
:101E80001B68C3F57F43FF33244A126813442A4A70
:101E90001360294B1A6807F108032849184608F00F
:101EA00021FB07F108031A461E210A2008F01CFA3C
:101EB000234B1B781A46234B1B8807F11C00224931
:101EC00008F010FB07F11C031A460A210A2008F04B
:101ED0000BFA0F4B1B685B6A1A460F4B1A600D4BCF
:101EE0001B685B6A1A460D4B1A6000F099FB786418
:101EF0000D4B1A680F4B1B68D31A0B4A13600B4B20
:101F00001A680D4B1B68D31A084A136029E700BFF3
:101F100074010020BC010020B4020020A8020020AF
:101F2000B8020020AC020020DC020020E002002009
:101F300048BC0008BC020020B002002054BC0008CD
:101F4000D4020020D602002064BC000880B582B014
:101F500000AF78600B4800F0D7FB0A21094800F079
:101F6000D8FC084800F060FD03461A46064B1A608C
:101F7000044800F09BFCFFF709FC012005F0C8F8BD
:101F8000E8E700BF90000020E402002080B400AF2A
:101F900072B600BF00BFBD465DF8047B704700000D
:101FA00080B582B000AF00237B60124B5B6C114A9E
:101FB00043F4804353640F4B5B6C03F480437B60BA
:101FC0007B6800233B600B4B1B6C0A4A43F0805339
:101FD0001364084B1B6C03F080533B603B6800228A
:101FE0000F216FF0010001F026F800BF0837BD4651
:101FF00080BD00BF0038024080B58AB000AF786075
:1020000007F1140300221A605A609A60DA601A61BC
:102010007B681B68174A934227D100233B61164B0C
:102020005B6C154A43F480735364134B5B6C03F48D
:1020300080733B613B690023FB600F4B1B6B0E4AB7
:1020400043F0040313630C4B1B6B03F00403FB60AE
:10205000FB6801237B610323BB610023FB6107F164
:1020600014031946054801F0AFF800BF2837BD46F4
:1020700080BD00BF0020014000380240000802403F
:1020800080B58AB000AF786007F1140300221A60AF
:102090005A609A60DA601A617B681B68194A934239
:1020A0002CD100233B61184B1B6B174A43F00203F2
:1020B0001363154B1B6B03F002033B613B694FF449
:1020C00040737B611223BB610023FB6103233B62EE
:1020D00004237B6207F1140319460C4801F074F8DD
:1020E0000023FB60084B1B6C074A43F40013136486
:1020F000054B1B6C03F40013FB60FB6800BF283723
:10210000BD4680BD0054004000380240000402403B
:1021100080B58AB000AF786007F1140300221A601E
:102120005A609A60DA601A617B681B68234A93429E
:102130000ED100233B61224B5B6C214A43F001032B
:1021400053641F4B5B6C03F001033B613B6930E060
:102150007B681B681B4A93422BD10023FB60184B02
:102160005B6C174A43F002035364154B5B6C03F03E
:102170000203FB60FB680023BB60114B1B6B104A22
:1021800043F0040313630E4B1B6B03F00403BB60AB
:10219000BB68C0237B610223BB610023FB6100237A
:1021A0003B6203237B6207F114031946064801F0E2
:1021B0000BF800BF2837BD4680BD00BF00000140BE
:1021C00000380240000401400008024080B58CB095
:1021D00000AF786007F11C0300221A605A609A6011
:1021E000DA601A617B681B68B3F1804F4BD1002322
:1021F000BB613F4B1B6C3E4A43F0010313643C4BF5
:102200001B6C03F00103BB61BB6900237B61384B8E
:102210001B6B374A43F001031363354B1B6B03F011
:1022200001037B617B6900233B61314B1B6B304AAF
:1022300043F0020313632E4B1B6B03F002033B615D
:102240003B694FF40043FB6102233B6200237B6246
:102250000023BB620123FB6207F11C0319462548DA
:1022600000F0B2FF0823FB6102233B6200237B6284
:102270000023BB620123FB6207F11C0319461E48C1
:1022800000F0A2FF30E07B681B681C4A93422BD110
:102290000023FB60164B1B6C154A43F002031364CA
:1022A000134B1B6C03F00203FB60FB680023BB6055
:1022B0000F4B1B6B0E4A43F0010313630C4B1B6B5C
:1022C00003F00103BB60BB68C023FB6102233B62D8
:1022D00000237B620023BB620223FB6207F11C0325
:1022E0001946044800F070FF00BF3037BD4680BD7E
:1022F0000038024000000240000402400004004098
:1023000080B588B000AF786007F10C0300221A6036
:102310005A609A60DA601A617B681B68124A9342BD
:102320001ED10023BB60114B1B6B104A43F01003FE
:1023300013630E4B1B6B03F01003BB60BB684FF4C1
:102340008043FB6002233B6100237B610023BB6170
:102350000123FB6107F10C031946054800F034FF27
:1023600000BF2037BD4680BD00000140003802405C
:102370000010024080B58AB000AF786007F1140306
:1023800000221A605A609A60DA601A617B681B68E2
:102390001D4A934234D100233B611C4B1B6C1B4AEA
:1023A00043F480231364194B1B6C03F480233B61BB
:1023B0003B690023FB60154B1B6B144A43F004037D
:1023C0001363124B1B6B03F00403FB60FB684FF4B9
:1023D00040637B610223BB610023FB6103233B62FB
:1023E00007237B6207F114031946094800F0ECFE4D
:1023F00000220521272000F01EFE272000F037FED6
:1024000000BF2837BD4680BD00480040003802406C
:102410000008024080B400AFFEE780B400AFFEE7E2
:1024200080B400AFFEE780B400AFFEE780B400AF39
:10243000FEE780B400AF00BFBD465DF8047B704787
:1024400080B500AF00F0D8F806F070FA0346012B13
:1024500001D007F059F800BF80BD000080B500AF83
:10246000024803F0DDFD00BF80BD00BF4C0200202C
:1024700080B586B000AF7860144A154BD31A7B61E3
:102480007B693B61134B1B68002B02D1114B124A35
:102490001A60104B1A687B6813443A699A4207D253
:1024A00007F0E0FF03460C221A604FF0FF3309E00B
:1024B000084B1B68FB60074B1A687B681344054A8E
:1024C0001360FB6818461837BD4680BD0000022027
:1024D00000040000EC0200206060002080B400AF27
:1024E000064BD3F88830054A43F47003C2F88830AD
:1024F00000BFBD465DF8047B704700BF00ED00E003
:10250000DFF834D00D480E490E4A002302E0D458BB
:10251000C4500433C4188C42F9D30B4A0B4C00232B
:1025200001E013600432A242FBD3FFF7D7FF07F0AC
:102530009FFFFEF7D3FC7047000002200000002040
:102540007400002030C80008740000206060002083
:10255000FEE7000080B500AF0E4B1B680D4A43F448
:10256000007313600B4B1B680A4A43F480631360CB
:10257000084B1B68074A43F480731360032000F084
:102580004FFD0F2000F008F8FFF70AFD0023184662
:1025900080BD00BF003C024080B582B000AF7860D3
:1025A000124B1A68124B1B7819464FF47A73B3FB1F
:1025B000F1F3B2FBF3F3184600F067FD0346002B7E
:1025C00001D001230EE07B680F2B0AD80022796826
:1025D0004FF0FF3000F02FFD064A7B6813600023A8
:1025E00000E0012318460837BD4680BD00000020EA
:1025F000080000200400002080B400AF064B1B78C8
:102600001A46064B1B681344044A136000BFBD46BC
:102610005DF8047B704700BF08000020F002002036
:1026200080B400AF034B1B681846BD465DF8047BC1
:10263000704700BFF002002080B584B000AF786022
:10264000FFF7EEFFB8607B68FB60FB68B3F1FF3F0C
:1026500005D00A4B1B781A46FB681344FB6000BF89
:10266000FFF7DEFF0246BB68D31AFA689A42F7D832
:1026700000BF00BF1037BD4680BD00BF080000206E
:1026800080B584B000AF78600023FB737B68002BBB
:1026900001D1012333E07B681B6C002B09D17868E2
:1026A000FFF7AAFC7B6800225A647B68002283F84B
:1026B0003C207B681B6C03F01003002B18D17B6857
:1026C0001B6C23F4885323F0020343F002027B685F
:1026D0001A64786800F0D8FA7B6800225A647B6834
:1026E0001B6C23F0030343F001027B681A6401E0D2
:1026F0000123FB737B68002283F83C20FB7B184698
:102700001037BD4680BD000080B485B000AF786052
:102710000023BB607B6893F83C30012B01D102237E
:10272000B2E07B68012283F83C207B681B689B68D1
:1027300003F00103012B18D07B681B689A687B6843
:102740001B6842F001029A60524B1B68524AA2FB7E
:1027500003239A0C13465B001344BB6002E0BB6882
:10276000013BBB60BB68002BF9D17B681B689B6891
:1027700003F00103012B7AD17B681B6C23F4E06327
:1027800023F0010343F480727B681A647B681B6842
:102790005B6803F48063002B07D07B681B6C23F419
:1027A000405343F480527B681A647B681B6C03F4CB
:1027B0008053B3F5805F06D17B685B6C23F0060223
:1027C0007B685A6402E07B6800225A647B680022BE
:1027D00083F83C20314BFB607B681B686FF0220262
:1027E0001A60FB685B6803F01F03002B2AD17B682B
:1027F0001B682B4A934215D07B681B68294A934279
:1028000005D1264B5B6803F01F03002B0AD07B68C1
:102810001B68254A934236D1204B5B6803F01003B6
:10282000002B30D17B681B689B6803F04053002B62
:1028300029D17B681B689A687B681B6842F08042DC
:102840009A6020E07B681B68154A93421BD17B6825
:102850001B689B6803F04053002B14D17B681B68F6
:102860009A687B681B6842F080429A600BE07B6844
:102870001B6C43F010027B681A647B685B6C43F04E
:1028800001027B685A64002318461437BD465DF880
:10289000047B70470000002083DE1B4300230140BF
:1028A00000200140002101400022014080B483B09B
:1028B00000AF78607B6893F83C30012B01D1022394
:1028C00021E07B68012283F83C207B681B689A68C2
:1028D0007B681B6822F001029A607B681B689B681A
:1028E00003F00103002B09D17B681B6C23F4885390
:1028F00023F0010343F001027B681A647B68002225
:1029000083F83C20002318460C37BD465DF8047B55
:10291000704780B584B000AF786039600023FB60F9
:102920007B681B689B6803F48063B3F5806F13D1E9
:102930007B681B689B6803F48073B3F5807F0BD1C1
:102940007B681B6C43F020027B681A647B68002262
:1029500083F83C20012363E0FFF762FEF86021E08A
:102960003B68B3F1FF3F1DD03B68002B07D0FFF75A
:1029700057FE0246FB68D31A3A689A4212D27B6825
:102980001B681B6803F00203022B0BD07B681B6CD7
:1029900043F004027B681A647B68002283F83C20C1
:1029A00003233DE07B681B681B6803F00203022BD6
:1029B000D6D17B681B686FF012021A607B681B6CB3
:1029C00043F400727B681A647B681B689B6803F0A1
:1029D0004053002B23D17B681B7E002B1FD17B68CB
:1029E0001B68DB6A03F47003002B06D07B681B684E
:1029F0009B6803F48063002B11D17B681B6C23F46C
:102A000080727B681A647B681B6C03F48053002B14
:102A100005D17B681B6C43F001027B681A640023BC
:102A200018461037BD4680BD80B483B000AF7860D3
:102A30007B681B68DB6C18460C37BD465DF8047B71
:102A40007047000080B485B000AF78603960002323
:102A5000BB607B6893F83C30012B01D1022305E178
:102A60007B68012283F83C203B681B68092B25D931
:102A70007B681B68D9683B681B689BB21A46134683
:102A80005B0013441E3B072202FA03F3DA437B6820
:102A90001B680A40DA607B681B68D9683B689A68E3
:102AA0003B681B689BB2184603465B0003441E3B11
:102AB0009A407B681B680A43DA6022E07B681B68E7
:102AC00019693B681B689BB21A4613465B001344A6
:102AD000072202FA03F3DA437B681B680A401A6193
:102AE0007B681B6819693B689A683B681B689BB2E6
:102AF000184603465B0003449A407B681B680A4300
:102B00001A613B685B68062B24D87B681B68596B8D
:102B10003B685A6813469B001344053B1F2202FA88
:102B200003F3DA437B681B680A405A637B681B68BF
:102B3000596B3B681B689BB218463B685A68134642
:102B40009B001344053B00FA03F27B681B680A43B1
:102B50005A634CE03B685B680C2B24D87B681B688D
:102B6000196B3B685A6813469B001344233B1F2292
:102B700002FA03F3DA437B681B680A401A637B6836
:102B80001B68196B3B681B689BB218463B685A6808
:102B900013469B001344233B00FA03F27B681B6837
:102BA0000A431A6323E07B681B68D96A3B685A684A
:102BB00013469B001344413B1F2202FA03F3DA43FE
:102BC0007B681B680A40DA627B681B68D96A3B68CD
:102BD0001B689BB218463B685A6813469B00134417
:102BE000413B00FA03F27B681B680A43DA62224B1E
:102BF000FB607B681B68214A934209D13B681B68D4
:102C0000122B05D1FB685B6843F48002FB685A60B5
:102C10007B681B68194A934223D13B681B68102BC1
:102C200003D03B681B68112B1BD1FB685B6843F426
:102C30000002FB685A603B681B68102B11D1104BD7
:102C40001B68104AA2FB03239A0C13469B001344F3
:102C50005B00BB6002E0BB68013BBB60BB68002B54
:102C6000F9D17B68002283F83C20002318461437F2
:102C7000BD465DF8047B7047002301400020014001
:102C80000000002083DE1B4380B485B000AF786075
:102C9000794BFB60FB685B6823F44032FB685A6049
:102CA000FB685A687B685B681A43FB685A607B68FC
:102CB0001B685A687B681B6822F480725A607B68C4
:102CC0001B6859687B681B691A027B681B680A438A
:102CD0005A607B681B685A687B681B6822F04072E8
:102CE0005A607B681B6859687B689A687B681B68B8
:102CF0000A435A607B681B689A687B681B6822F4E9
:102D000000629A607B681B6899687B68DA687B68F8
:102D10001B680A439A607B689B6A584A934222D098
:102D20007B681B689A687B681B6822F070629A60F7
:102D30007B681B6899687B689A6A7B681B680A4392
:102D40009A607B681B689A687B681B6822F0405217
:102D50009A607B681B6899687B68DA6A7B681B6885
:102D60000A439A600FE07B681B689A687B681B685F
:102D700022F070629A607B681B689A687B681B68A7
:102D800022F040529A607B681B689A687B681B68D7
:102D900022F002029A607B681B6899687B681B7E40
:102DA0005A007B681B680A439A607B6893F820305E
:102DB000002B1BD07B681B685A687B681B6842F439
:102DC00000625A607B681B685A687B681B6822F443
:102DD00060425A607B681B6859687B685B6A013B8C
:102DE0005A037B681B680A435A6007E07B681B68CC
:102DF0005A687B681B6822F400625A607B681B6813
:102E0000DA6A7B681B6822F47002DA627B681B68EE
:102E1000D96A7B68DB69013B1A057B681B680A433A
:102E2000DA627B681B689A687B681B6822F4007210
:102E30009A607B681B6899687B6893F830305A0207
:102E40007B681B680A439A607B681B689A687B688A
:102E50001B6822F480629A607B681B6899687B68B3
:102E60005B699A027B681B680A439A6000BF14374B
:102E7000BD465DF8047B7047002301400100000F50
:102E800080B485B000AF78607B6803F00703FB6017
:102E90000C4BDB68BB60BA684FF6FF031340BB60A6
:102EA000FB681A02BB68134343F0BF6343F400336B
:102EB000BB60044ABB68D36000BF1437BD465DF8F1
:102EC000047B704700ED00E080B400AF044BDB688A
:102ED0001B0A03F007031846BD465DF8047B7047E4
:102EE00000ED00E080B483B000AF0346FB7197F9BA
:102EF0000730002B0BDBFB7903F01F02074997F922
:102F000007305B09012000FA02F241F8232000BFDC
:102F10000C37BD465DF8047B704700BF00E100E060
:102F200080B483B000AF03463960FB7197F9073076
:102F3000002B0ADB3B68DAB20C4997F90730120123
:102F4000D2B20B4483F800230AE03B68DAB20849A6
:102F5000FB7903F00F03043B1201D2B20B441A7643
:102F600000BF0C37BD465DF8047B704700E100E010
:102F700000ED00E080B489B000AFF860B9607A601D
:102F8000FB6803F00703FB61FB69C3F10703042B34
:102F900028BF0423BB61FB690433062B02D9FB69FC
:102FA000033B00E000237B614FF0FF32BB6902FA74
:102FB00003F3DA43BB681A407B699A404FF0FF3154
:102FC0007B6901FA03F3D9437B680B40134318462E
:102FD0002437BD465DF8047B7047000080B582B0A1
:102FE00000AF78607B68013BB3F1807F01D30123A0
:102FF0000FE00A4A7B68013B53600F214FF0FF301E
:10300000FFF78EFF054B00229A60044B07221A60DF
:10301000002318460837BD4680BD00BF10E000E021
:1030200080B582B000AF78607868FFF729FF00BFF5
:103030000837BD4680BD80B586B000AF0346B96095
:103040007A60FB7300237B61FFF73EFF78617A684B
:10305000B9687869FFF78EFF024697F90F3011467D
:103060001846FFF75DFF00BF1837BD4680BD80B52D
:1030700082B000AF0346FB7197F907301846FFF79F
:1030800031FF00BF0837BD4680BD80B582B000AFBC
:1030900078607868FFF7A2FF034618460837BD46F8
:1030A00080BD80B584B000AF78607B689B6DFB60AD
:1030B000FFF7B6FAB8607B6893F83530DBB2022BC5
:1030C00008D07B6880225A657B68002283F8342010
:1030D000012352E07B681B681A687B681B6822F03A
:1030E00016021A607B681B685A697B681B6822F0AD
:1030F00080025A617B681B6C002B03D17B689B6C40
:10310000002B07D07B681B681A687B681B6822F05D
:1031100008021A607B681B681A687B681B6822F0CB
:1031200001021A6013E0FFF77BFA0246BB68D31A6C
:10313000052B0CD97B6820225A657B68032283F813
:1031400035207B68002283F83420032315E07B6858
:103150001B681B6803F00103002BE4D17B68DB6D67
:103160003F229A40FB689A607B68012283F83520F1
:103170007B68002283F83420002318461037BD46B0
:1031800080BD80B483B000AF78607B6893F8353041
:10319000DBB2022B04D07B6880225A6501230CE04D
:1031A0007B68052283F835207B681B681A687B687A
:1031B0001B6822F001021A60002318460C37BD4636
:1031C0005DF8047B7047000080B489B000AF786080
:1031D000396000237B6100233B610023BB61002336
:1031E000FB616BE10122FB6902FA03F37B613B683F
:1031F0001B687A6913403B613A697B699A4240F0E7
:103200005A813B685B6803F00303012B05D03B68E0
:103210005B6803F00303022B30D17B689B68BB61C2
:10322000FB695B00032202FA03F3DB43BA69134034
:10323000BB613B68DA68FB695B0002FA03F3BA69B9
:103240001343BB617B68BA699A607B685B68BB614A
:103250000122FB6902FA03F3DB43BA691340BB6145
:103260003B685B681B0903F00102FB6902FA03F388
:10327000BA691343BB617B68BA695A603B685B6893
:1032800003F00303032B17D07B68DB68BB61FB698A
:103290005B00032202FA03F3DB43BA691340BB610C
:1032A0003B689A68FB695B0002FA03F3BA6913434F
:1032B000BB617B68BA69DA603B685B6803F0030353
:1032C000022B23D1FB69DA087B68083253F82230DD
:1032D000BB61FB6903F007039B000F2202FA03F3B3
:1032E000DB43BA691340BB613B681A69FB6903F0B1
:1032F00007039B0002FA03F3BA691343BB61FB693E
:10330000DA087B680832B96943F822107B681B68C9
:10331000BB61FB695B00032202FA03F3DB43BA697A
:103320001340BB613B685B6803F00302FB695B0011
:1033300002FA03F3BA691343BB617B68BA691A6086
:103340003B685B6803F44033002B00F0B48000233B
:10335000FB60604B5B6C5F4A43F4804353645D4B9E
:103360005B6C03F48043FB60FB685B4AFB699B0872
:10337000023352F82330BB61FB6903F003039B0067
:103380000F2202FA03F3DB43BA691340BB617B6887
:10339000524A93422BD07B68514A934225D07B6896
:1033A000504A93421FD07B684F4A934219D07B68A2
:1033B0004E4A934213D07B684D4A93420DD07B68AE
:1033C0004C4A934207D07B684B4A934201D1072372
:1033D0000EE008230CE006230AE0052308E004239E
:1033E00006E0032304E0022302E0012300E00023BF
:1033F000FA6902F0030292009340BA691343BB6179
:103400003549FB699B080233BA6941F823203B4BDD
:103410009B68BB613B69DB43BA691340BB613B6896
:103420005B6803F48013002B03D0BA693B69134334
:10343000BB61324ABB699360304BDB68BB613B695F
:10344000DB43BA691340BB613B685B6803F400135C
:10345000002B03D0BA693B691343BB61274ABB69A0
:10346000D360264B5B68BB613B69DB43BA691340A1
:10347000BB613B685B6803F40033002B03D0BA697F
:103480003B691343BB611D4ABB6953601B4B1B68FF
:10349000BB613B69DB43BA691340BB613B685B6856
:1034A00003F48033002B03D0BA693B691343BB613B
:1034B000124ABB691360FB690133FB61FB690F2B87
:1034C0007FF690AE00BF00BF2437BD465DF8047B99
:1034D000704700BF00380240003801400000024041
:1034E0000004024000080240000C024000100240AC
:1034F0000014024000180240001C0240003C014041
:1035000080B483B000AF78600B467B8013467B703D
:103510007B78002B03D07A887B689A6103E07B88F4
:103520001A047B689A6100BF0C37BD465DF8047BC6
:10353000704780B485B000AF78600B467B807B68B5
:103540005B69FB607A88FB6813401A04FB68D94307
:103550007B880B401A437B689A6100BF1437BD46D5
:103560005DF8047B7047000080B584B000AF7860E0
:103570007B68002B01D101232BE17B6893F83D3060
:10358000DBB2002B06D17B68002283F83C207868F0
:10359000FEF776FD7B68242283F83D207B681B685C
:1035A0001A687B681B6822F001021A607B681B683E
:1035B0001A687B681B6842F400421A607B681B68CB
:1035C0001A687B681B6822F400421A6001F0E4FB71
:1035D000F8607B685B68814A934207D8FB68804A41
:1035E000934294BF01230023DBB206E0FB687D4ACF
:1035F000934294BF01230023DBB2002B01D00123AF
:10360000E7E0FB68784AA2FB03239B0CBB607B6866
:103610001B685B6823F03F017B681B68BA680A433C
:103620005A607B681B681B6A23F03F017B685B68FC
:103630006A4A934202D8BB68013309E0BB684FF481
:10364000967202FB03F3694AA2FB03239B09013331
:103650007A6812680B4313627B681B68DB6923F48A
:103660004F4222F0FF027B685B685C498B4219D8AD
:10367000FB68591E7B685B685B00B1FBF3F3591C68
:1036800040F6FC730B40002B0AD0FB68591E7B6888
:103690005B685B00B1FBF3F30133C3F30B0351E051
:1036A00004234FE07B689B68002B11D1FB68581EF8
:1036B0007B6859680B465B000B44B0FBF3F30133A6
:1036C000C3F30B03002B0CBF01230023DBB212E07A
:1036D000FB68581E7B6859680B469B000B44990099
:1036E0000B44B0FBF3F30133C3F30B03002B0CBF0C
:1036F00001230023DBB2002B01D0012322E07B68F1
:103700009B68002B0ED1FB68581E7B6859680B46DE
:103710005B000B44B0FBF3F30133C3F30B0343F43F
:1037200000430FE0FB68581E7B6859680B469B00FE
:103730000B4499000B44B0FBF3F30133C3F30B03C9
:1037400043F44043796809681343CB617B681B6885
:103750001B6823F0C0017B68DA697B681B6A1A4327
:103760007B681B680A431A607B681B689B6823F4AC
:10377000034323F0FF037A6811697A68D268114322
:103780007A6812680B4393607B681B68DB6823F0E0
:10379000FF017B685A697B689B691A437B681B68D9
:1037A0000A43DA607B681B681A687B681B6842F012
:1037B00001021A607B6800221A647B68202283F869
:1037C0003D207B6800221A637B68002283F83E203C
:1037D000002318461037BD4680BD00BFA0860100FB
:1037E0007F841E00FF083D0083DE1B43D34D621023
:1037F00080B588B002AFF860084611461A46034605
:103800007B810B463B811346FB80FEF709FF786105
:10381000FB6893F83D30DBB2202B40F0D9807B6908
:103820000093192301226D49F86800F07FFC0346DC
:10383000002B01D00223CCE0FB6893F83C30012B35
:1038400001D10223C5E0FB68012283F83C20FB681C
:103850001B681B6803F00103012B07D0FB681B6882
:103860001A68FB681B6842F001021A60FB681B685B
:103870001A68FB681B6822F400621A60FB68212248
:1038800083F83D20FB68402283F83E20FB6800223D
:103890001A64FB683A6A5A62FB68BA8C5A85FB68FC
:1038A0005B8D9AB2FB681A85FB684D4ADA62F8882C
:1038B0003A8979897B690193BB6A00930346F8686A
:1038C00000F0B6FA0346002B52D0012381E07A695A
:1038D000B96AF86800F000FD0346002B0DD0FB68C4
:1038E0001B6C042B07D1FB681B681A68FB681B68FC
:1038F00042F400721A6001236BE0FB685B6A1A787D
:10390000FB681B681A61FB685B6A5A1CFB685A6299
:10391000FB681B8D013B9AB2FB681A85FB685B8DC7
:103920009BB2013B9AB2FB685A85FB681B685B69D6
:1039300003F00403042B1BD1FB681B8D002B17D055
:10394000FB685B6A1A78FB681B681A61FB685B6A34
:103950005A1CFB685A62FB681B8D013B9AB2FB68DC
:103960001A85FB685B8D9BB2013B9AB2FB685A8556
:10397000FB681B8D002BAAD17A69B96AF86800F040
:10398000ECFC0346002B0DD0FB681B6C042B07D10D
:10399000FB681B681A68FB681B6842F400721A60B7
:1039A000012316E0FB681B681A68FB681B6842F479
:1039B00000721A60FB68202283F83D20FB68002219
:1039C00083F83E20FB68002283F83C20002300E0BF
:1039D000022318461837BD4680BD00BF0200100004
:1039E0000000FFFF80B58CB002AFF86008461146BA
:1039F0001A4603467B810B463B811346FB80FEF74C
:103A00000FFE7862FB6893F83D30DBB2202B40F06C
:103A100008827B6A0093192301227B49F86800F031
:103A200085FB0346002B01D00223FBE1FB6893F8E2
:103A30003C30012B01D10223F4E1FB68012283F821
:103A40003C20FB681B681B6803F00103012B07D0B7
:103A5000FB681B681A68FB681B6842F001021A6069
:103A6000FB681B681A68FB681B6822F400621A6016
:103A7000FB68222283F83D20FB68402283F83E2029
:103A8000FB6800221A64FB683A6B5A62FB68BA8EC4
:103A90005A85FB685B8D9AB2FB681A85FB685B4AA6
:103AA000DA62F8883A8979897B6A0193BB6B009363
:103AB0000346F86800F052FA0346002B01D00123B8
:103AC000B0E1FB681B8D002B13D100233B62FB6828
:103AD0001B685B693B62FB681B689B693B623B6AD6
:103AE000FB681B681A68FB681B6842F400721A6066
:103AF00084E1FB681B8D012B1BD1FB681B681A68D6
:103B0000FB681B6822F480621A600023FB61FB687B
:103B10001B685B69FB61FB681B689B69FB61FB6958
:103B2000FB681B681A68FB681B6842F400721A6025
:103B300064E1FB681B8D022B1BD1FB681B681A68B4
:103B4000FB681B6822F480621A60FB681B681A68B5
:103B5000FB681B6842F400621A600023BB61FB68CB
:103B60001B685B69BB61FB681B689B69BB61BB69C8
:103B700044E100237B61FB681B685B697B61FB6838
:103B80001B689B697B617B6938E1FB681B8D032B9C
:103B900000F2F180FB681B8D012B23D17A6AB96B8F
:103BA000F86800F01BFC0346002B01D0012339E12B
:103BB000FB681B681A69FB685B6AD2B21A70FB6803
:103BC0005B6A5A1CFB685A62FB681B8D013B9AB208
:103BD000FB681A85FB685B8D9BB2013B9AB2FB6860
:103BE0005A850BE1FB681B8D022B4ED17B6A00933B
:103BF000BB6B00220649F86800F098FA0346002BD8
:103C000008D001230EE100BF020010000000FFFFFA
:103C100004000100FB681B681A68FB681B6842F41B
:103C200000721A60FB681B681A69FB685B6AD2B293
:103C30001A70FB685B6A5A1CFB685A62FB681B8D32
:103C4000013B9AB2FB681A85FB685B8D9BB2013B16
:103C50009AB2FB685A85FB681B681A69FB685B6A45
:103C6000D2B21A70FB685B6A5A1CFB685A62FB6826
:103C70001B8D013B9AB2FB681A85FB685B8D9BB27A
:103C8000013B9AB2FB685A85B8E07B6A0093BB6B34
:103C900000226649F86800F049FA0346002B01D07B
:103CA0000123BFE0FB681B681A68FB681B6822F4ED
:103CB00080621A60FB681B681A69FB685B6AD2B293
:103CC0001A70FB685B6A5A1CFB685A62FB681B8DA2
:103CD000013B9AB2FB681A85FB685B8D9BB2013B86
:103CE0009AB2FB685A857B6A0093BB6B00224F49EE
:103CF000F86800F01BFA0346002B01D0012391E085
:103D0000FB681B681A68FB681B6842F400721A6043
:103D1000FB681B681A69FB685B6AD2B21A70FB68A1
:103D20005B6A5A1CFB685A62FB681B8D013B9AB2A6
:103D3000FB681A85FB685B8D9BB2013B9AB2FB68FE
:103D40005A85FB681B681A69FB685B6AD2B21A70F5
:103D5000FB685B6A5A1CFB685A62FB681B8D013B5F
:103D60009AB2FB681A85FB685B8D9BB2013B9AB2E5
:103D7000FB685A8542E07A6AB96BF86800F02EFB5E
:103D80000346002B01D001234CE0FB681B681A6935
:103D9000FB685B6AD2B21A70FB685B6A5A1CFB68EC
:103DA0005A62FB681B8D013B9AB2FB681A85FB685F
:103DB0005B8D9BB2013B9AB2FB685A85FB681B681E
:103DC0005B6903F00403042B18D1FB681B681A69B4
:103DD000FB685B6AD2B21A70FB685B6A5A1CFB68AC
:103DE0005A62FB681B8D013B9AB2FB681A85FB681F
:103DF0005B8D9BB2013B9AB2FB685A85FB681B8DB9
:103E0000002B7FF4C2AEFB68202283F83D20FB68C4
:103E1000002283F83E20FB68002283F83C20002328
:103E200000E0022318462837BD4680BD040001008B
:103E300080B588B002AFF860084611461A460346BE
:103E40007B810B463B811346FB80FB681B681A682D
:103E5000FB681B6842F480721A607B6A00933B6ABD
:103E600000224FF00111F86800F060F90346002BC2
:103E70000DD0FB681B681B6803F48073B3F5807F6B
:103E800003D1FB684FF400721A6403235FE07B895F
:103E9000DBB21A46FB681B6802F0FE021A617B6AFD
:103EA0003A6A2D49F86800F098F90346002B01D0D2
:103EB00001234CE000237B61FB681B685B697B612D
:103EC000FB681B689B697B617B697A6A396AF86861
:103ED00000F002FA0346002B0DD0FB681B6C042B8C
:103EE00007D1FB681B681A68FB681B6842F4007204
:103EF0001A6001232BE0FB88012B05D13B89DAB244
:103F0000FB681B681A6121E03B891B0A9BB2DAB28D
:103F1000FB681B681A617A6A396AF86800F0DCF994
:103F20000346002B0DD0FB681B6C042B07D1FB68EC
:103F30001B681A68FB681B6842F400721A60012350
:103F400005E03B89DAB2FB681B681A61002318465A
:103F50001837BD4680BD00BF0200010080B588B0A3
:103F600002AFF860084611461A4603467B810B46AD
:103F70003B811346FB80FB681B681A68FB681B6863
:103F800042F480621A60FB681B681A68FB681B6851
:103F900042F480721A607B6A00933B6A00224FF001
:103FA0000111F86800F0C2F80346002B0DD0FB6841
:103FB0001B681B6803F48073B3F5807F03D1FB6833
:103FC0004FF400721A640323AAE07B89DBB21A461D
:103FD000FB681B6802F0FE021A617B6A3A6A52496A
:103FE000F86800F0FAF80346002B01D0012397E0AF
:103FF00000237B61FB681B685B697B61FB681B6856
:104000009B697B617B697A6A396AF86800F064F9B8
:104010000346002B0DD0FB681B6C042B07D1FB68FB
:104020001B681A68FB681B6842F400721A6001235F
:1040300076E0FB88012B05D13B89DAB2FB681B686F
:104040001A6121E03B891B0A9BB2DAB2FB681B684C
:104050001A617A6A396AF86800F03EF90346002B63
:104060000DD0FB681B6C042B07D1FB681B681A681A
:10407000FB681B6842F400721A60012350E03B8920
:10408000DAB2FB681B681A617A6A396AF86800F06C
:1040900023F90346002B0DD0FB681B6C042B07D1C2
:1040A000FB681B681A68FB681B6842F400721A60A0
:1040B000012335E0FB681B681A68FB681B6842F443
:1040C00080721A607B6A00933B6A00224FF00111F4
:1040D000F86800F02BF80346002B0DD0FB681B6836
:1040E0001B6803F48073B3F5807F03D1FB684FF442
:1040F00000721A64032313E07B89DBB243F00103EF
:10410000DAB2FB681B681A617B6A3A6A0649F8688A
:1041100000F063F80346002B01D0012300E00023E8
:1041200018461837BD4680BD0200010080B584B036
:1041300000AFF860B9603B601346FB7125E03B6857
:10414000B3F1FF3F21D0FEF76BFA0246BB69D31AE9
:104150003A689A4202D33B68002B16D1FB680022D2
:104160001A63FB68202283F83D20FB68002283F855
:104170003E20FB681B6C43F02002FB681A64FB685E
:10418000002283F83C20012323E0BB681B0CDBB238
:10419000012B0DD1FB681B685B69DA43BB681340D8
:1041A0009BB2002B0CBF01230023DBB21A460CE0AC
:1041B000FB681B689B69DA43BB6813409BB2002B0A
:1041C0000CBF01230023DBB21A46FB799A42B6D01A
:1041D000002318461037BD4680BD80B584B000AFBF
:1041E000F860B9607A603B6051E0FB681B685B690E
:1041F00003F48063B3F5806F23D1FB681B681A68F2
:10420000FB681B6842F400721A60FB681B686FF45D
:1042100080625A61FB6800221A63FB68202283F8DF
:104220003D20FB68002283F83E20FB681B6C43F0B6
:104230000402FB681A64FB68002283F83C20012317
:1042400046E07B68B3F1FF3F21D0FEF7E9F9024673
:104250003B68D31A7A689A4202D37B68002B16D146
:10426000FB6800221A63FB68202283F83D20FB686C
:10427000002283F83E20FB681B6C43F02002FB68A1
:104280001A64FB68002283F83C20012320E0BB680D
:104290001B0CDBB2012B0CD1FB681B685B69DA439A
:1042A000BB6813409BB2002B14BF01230023DBB279
:1042B0000BE0FB681B689B69DA43BB6813409BB249
:1042C000002B14BF01230023DBB2002B8DD1002370
:1042D00018461037BD4680BD80B584B000AFF86089
:1042E000B9607A602DE0F86800F0CEF80346002B44
:1042F00001D001232DE0BB68B3F1FF3F21D0FEF7D1
:104300008FF902467B68D31ABA689A4202D3BB6817
:10431000002B16D1FB6800221A63FB68202283F869
:104320003D20FB68002283F83E20FB681B6C43F0B5
:104330002002FB681A64FB68002283F83C200123FA
:1043400007E0FB681B685B6903F08003802BCAD120
:10435000002318461037BD4680BD80B584B000AF3D
:10436000F860B9607A602DE0F86800F08DF80346D7
:10437000002B01D001232DE0BB68B3F1FF3F21D01A
:10438000FEF74EF902467B68D31ABA689A4202D306
:10439000BB68002B16D1FB6800221A63FB68202241
:1043A00083F83D20FB68002283F83E20FB681B6CED
:1043B00043F02002FB681A64FB68002283F83C206B
:1043C000012307E0FB681B685B6903F00403042B0F
:1043D000CAD1002318461037BD4680BD80B584B0D1
:1043E00000AFF860B9607A6042E0FB681B685B6907
:1043F00003F01003102B19D1FB681B686FF010023B
:104400005A61FB6800221A63FB68202283F83D2072
:10441000FB68002283F83E20FB681A6CFB681A6474
:10442000FB68002283F83C20012329E0FEF7F8F81E
:1044300002467B68D31ABA689A4202D3BB68002B43
:1044400016D1FB6800221A63FB68202283F83D2006
:10445000FB68002283F83E20FB681B6C43F02002BF
:10446000FB681A64FB68002283F83C20012307E004
:10447000FB681B685B6903F04003402BB5D1002348
:1044800018461037BD4680BD80B483B000AF786059
:104490007B681B685B6903F48063B3F5806F1BD195
:1044A0007B681B686FF480625A617B6800221A6324
:1044B0007B68202283F83D207B68002283F83E2021
:1044C0007B681B6C43F004027B681A647B680022E3
:1044D00083F83C20012300E0002318460C37BD463A
:1044E0005DF8047B7047000080B483B000AF064BDA
:1044F00001221A60054B1B687B607B6800BF0C378C
:10450000BD465DF8047B704720000E4200700040FD
:1045100080B483B000AF064B00221A60054B1B68C5
:104520007B607B6800BF0C37BD465DF8047B70473D
:1045300020000E420070004080B586B000AF786069
:104540007B68002B01D1012367E27B681B6803F0C5
:104550000103002B75D0884B9B6803F00C03042BE0
:104560000CD0854B9B6803F00C03082B12D1824BB7
:104570005B6803F48003B3F5800F0BD17E4B1B689F
:1045800003F40033002B5BD07B685B68002B57D1B2
:10459000012342E27B685B68B3F5803F06D1764B2E
:1045A0001B68754A43F4803313601DE07B685B68C9
:1045B000B3F5A02F0CD1704B1B686F4A43F48023D6
:1045C00013606D4B1B686C4A43F4803313600BE03F
:1045D000694B1B68684A23F480331360664B1B6881
:1045E000654A23F4802313607B685B68002B13D03B
:1045F000FEF716F8386108E0FEF712F802463B694C
:10460000D31A642B01D9032307E25B4B1B6803F425
:104610000033002BF0D014E0FEF702F8386108E018
:10462000FDF7FEFF02463B69D31A642B01D9032331
:10463000F3E1514B1B6803F40033002BF0D100E091
:1046400000BF7B681B6803F00203002B63D04A4B5A
:104650009B6803F00C03002B0BD0474B9B6803F0C7
:104660000C03082B1CD1444B5B6803F48003002B24
:1046700016D1414B1B6803F00203002B05D07B6869
:10468000DB68012B01D00123C7E13B4B1B6823F002
:10469000F8027B681B69DB00374913430B603AE083
:1046A0007B68DB68002B20D0344B01221A60FDF7B9
:1046B000B7FF386108E0FDF7B3FF02463B69D31A44
:1046C000022B01D90323A8E12B4B1B6803F0020343
:1046D000002BF0D0284B1B6823F0F8027B681B6985
:1046E000DB00254913430B6015E0244B00221A60C0
:1046F000FDF796FF386108E0FDF792FF02463B693F
:10470000D31A022B01D9032387E11B4B1B6803F04B
:104710000203002BF0D17B681B6803F00803002B19
:1047200036D07B685B69002B16D0154B01221A60CE
:10473000FDF776FF386108E0FDF772FF02463B693E
:10474000D31A022B01D9032367E10B4B5B6F03F0F4
:104750000203002BF0D01BE0094B00221A60FDF78A
:104760005FFF38610EE0FDF75BFF02463B69D31A3D
:10477000022B07D9032350E10038024000004742D2
:10478000800E4742884B5B6F03F00203002BEAD197
:104790007B681B6803F00403002B00F09780002364
:1047A000FB75814B1B6C03F08053002B0FD1002352
:1047B000BB607D4B1B6C7C4A43F0805313647A4B87
:1047C0001B6C03F08053BB60BB680123FB75774B08
:1047D0001B6803F48073002B18D1744B1B68734A59
:1047E00043F480731360FDF71BFF386108E0FDF7A9
:1047F00017FF02463B69D31A022B01D903230CE1B0
:104800006A4B1B6803F48073002BF0D07B689B68B5
:10481000012B06D1644B1B6F634A43F001031367FE
:104820001CE07B689B68052B0CD15F4B1B6F5E4ABD
:1048300043F0040313675C4B1B6F5B4A43F00103B7
:1048400013670BE0584B1B6F574A23F001031367A4
:10485000554B1B6F544A23F0040313677B689B6816
:10486000002B15D0FDF7DCFE38610AE0FDF7D8FE1D
:1048700002463B69D31A41F28832934201D903239D
:10488000CBE0494B1B6F03F00203002BEED014E08A
:10489000FDF7C6FE38610AE0FDF7C2FE02463B693D
:1048A000D31A41F28832934201D90323B5E03E4B3B
:1048B0001B6F03F00203002BEED1FB7D012B05D112
:1048C000394B1B6C384A23F0805313647B689B6917
:1048D000002B00F0A180344B9B6803F00C03082BE5
:1048E0005CD07B689B69022B41D1314B00221A605E
:1048F000FDF796FE386108E0FDF792FE02463B693F
:10490000D31A022B01D9032387E0274B1B6803F03E
:104910000073002BF0D17B68DA697B681B6A1A434D
:104920007B685B6A9B011A437B689B6A5B08013B5F
:104930001B041A437B68DB6A1B061B4913434B604D
:104940001B4B01221A60FDF76BFE386108E0FDF792
:1049500067FE02463B69D31A022B01D903235CE0B0
:10496000114B1B6803F00073002BF0D054E0104B88
:1049700000221A60FDF754FE386108E0FDF750FE92
:1049800002463B69D31A022B01D9032345E0064BAB
:104990001B6803F00073002BF0D13DE07B689B693E
:1049A000012B07D1012338E000380240007000409D
:1049B000600047421B4B5B68FB607B689B69012B77
:1049C00028D0FB6803F480027B68DB699A4221D11E
:1049D000FB6803F03F027B681B6A9A421AD1FA68AF
:1049E00047F6C07313407A68526A9201934211D11C
:1049F000FB6803F440327B689B6A5B08013B1B0445
:104A00009A4207D1FB6803F070627B68DB6A1B0681
:104A10009A4201D0012300E0002318461837BD4612
:104A200080BD00BF0038024080B584B000AF786020
:104A300039607B68002B01D10123CCE0684B1B68F7
:104A400003F007033A689A420CD9654B3A68D2B230
:104A50001A70634B1B6803F007033A689A4201D04F
:104A60000123B8E07B681B6803F00203002B20D011
:104A70007B681B6803F00403002B05D0594B9B682F
:104A8000584A43F4E05393607B681B6803F00803C3
:104A9000002B05D0534B9B68524A43F4604393600C
:104AA000504B9B6823F0F0027B689B684D49134391
:104AB0008B607B681B6803F00103002B44D07B688C
:104AC0005B68012B07D1474B1B6803F40033002BB5
:104AD00019D101237FE07B685B68022B03D07B68E0
:104AE0005B68032B07D13F4B1B6803F00073002B5F
:104AF00009D101236FE03B4B1B6803F00203002B3D
:104B000001D1012367E0374B9B6823F003027B68E8
:104B10005B68344913438B60FDF782FDF8600AE05F
:104B2000FDF77EFD0246FB68D31A41F288329342BC
:104B300001D903234FE02B4B9B6803F00C027B68E9
:104B40005B689B009A42EBD1254B1B6803F007037F
:104B50003A689A420CD2224B3A68D2B21A70204B71
:104B60001B6803F007033A689A4201D0012332E040
:104B70007B681B6803F00403002B08D0194B9B686B
:104B800023F4E0527B68DB68164913438B607B6833
:104B90001B6803F00803002B09D0124B9B6823F419
:104BA00060427B681B69DB000E4913438B6000F099
:104BB00021F802460B4B9B681B0903F00F030A49BF
:104BC000CB5C22FA03F3094A1360094B1B681846B1
:104BD000FDF7E2FC002318461037BD4680BD00BF3C
:104BE000003C02400038024040BD000800000020A8
:104BF000040000202DE9B04F90B000AF00237B638C
:104C00000023FB6300233B630023BB63594B9B687A
:104C100003F00C03082B0DD0082B00F2A180002B11
:104C200002D0042B03D09BE0534BBB639BE0534B60
:104C3000BB6398E04F4B5B6803F03F037B634D4BD6
:104C40005B6803F48003002B28D04A4B5B689B0908
:104C500000223B627A623B6AC3F308000021474BA3
:104C600003FB01F2002300FB03F31344434AA0FBC0
:104C70000212FA620A46BA62FA6A1344FB627B6B5A
:104C80000022BB61FA61D7E90623D7E90A01FBF7E5
:104C9000A3FF02460B461346FB6353E0354B5B68AC
:104CA0009B0900223B617A613B69C3F3080A4FF01C
:104CB000000B52465B464FF000004FF000015901D7
:104CC00041EAD261500102460B46B2EB0A0863EB9F
:104CD0000B094FF000024FF000034FEA891343EA3B
:104CE00098634FEA8812B2EB080463EB09054FF0B2
:104CF00000024FF00003EB0043EA5473E200144655
:104D00001D4614EB0A033B6045EB0B037B604FF041
:104D100000024FF00003D7E9004529468B022146E7
:104D200043EA915321468A02104619467B6B0022C2
:104D3000BB60FA60D7E90223FBF74EFF02460B4641
:104D40001346FB630B4B5B681B0C03F0030301333F
:104D50005B003B63FA6B3B6BB2FBF3F3BB6302E0BC
:104D6000054BBB6300BFBB6B18464037BD46BDE873
:104D7000B08F00BF003802400024F40040787D016D
:104D800080B400AF034B1B681846BD465DF8047B3A
:104D9000704700BF0000002080B500AFFFF7F0FFB4
:104DA0000246054B9B689B0A03F007030349CB5C53
:104DB00022FA03F3184680BD0038024050BD0008B7
:104DC00080B500AFFFF7DCFF0246054B9B685B0B2D
:104DD00003F007030349CB5C22FA03F3184680BDB6
:104DE0000038024050BD000880B582B000AF786046
:104DF0007B68002B01D1012341E07B6893F83D30B3
:104E0000DBB2002B06D17B68002283F83C20786857
:104E1000FDF77EF97B68022283F83D207B681A68E3
:104E20007B6804331946104600F00CFC7B680122B5
:104E300083F846207B68012283F83E207B680122AC
:104E400083F83F207B68012283F840207B680122A1
:104E500083F841207B68012283F842207B6801228D
:104E600083F843207B68012283F844207B68012279
:104E700083F845207B68012283F83D2000231846F3
:104E80000837BD4680BD80B582B000AF78607B68D2
:104E9000002B01D1012341E07B6893F83D30DBB268
:104EA000002B06D17B68002283F83C20786800F054
:104EB00039F87B68022283F83D207B681A687B689A
:104EC00004331946104600F0BDFB7B68012283F8CD
:104ED00046207B68012283F83E207B68012283F80C
:104EE0003F207B68012283F840207B68012283F801
:104EF00041207B68012283F842207B68012283F8ED
:104F000043207B68012283F844207B68012283F8D8
:104F100045207B68012283F83D200023184608378E
:104F2000BD4680BD80B483B000AF786000BF0C3751
:104F3000BD465DF8047B704780B584B000AF7860F3
:104F400039603B68002B09D17B6893F83E30DBB2B7
:104F5000012B14BF01230023DBB222E03B68042BAA
:104F600009D17B6893F83F30DBB2012B14BF0123DA
:104F70000023DBB215E03B68082B09D17B6893F86E
:104F80004030DBB2012B14BF01230023DBB208E069
:104F90007B6893F84130DBB2012B14BF012300235F
:104FA000DBB2002B01D001237CE03B68002B04D155
:104FB0007B68022283F83E2013E03B68042B04D177
:104FC0007B68022283F83F200BE03B68082B04D16A
:104FD0007B68022283F8402003E07B68022283F88A
:104FE00041207B681B6801223968184600F014FED6
:104FF0007B681B682D4A934204D07B681B682C4A4F
:10500000934201D1012300E00023002B07D07B68ED
:105010001B685A6C7B681B6842F400425A647B68C8
:105020001B68224A934222D07B681B68B3F1804FF1
:105030001DD07B681B681F4A934218D07B681B6891
:105040001D4A934213D07B681B681C4A93420ED0C2
:105050007B681B68164A934209D07B681B68184A14
:10506000934204D07B681B68164A934211D17B6837
:105070001B689B6803F00703FB60FB68062B10D0DE
:105080007B681B681A687B681B6842F001021A6023
:1050900007E07B681B681A687B681B6842F00102A6
:1050A0001A60002318461037BD4680BD000001403D
:1050B000000401400004004000080040000C0040D3
:1050C000004001400018004080B586B000AF786015
:1050D00039607B68002B01D1012397E07B6893F84E
:1050E0003D30DBB2002B06D17B68002283F83C20E8
:1050F0007868FDF76BF87B68022283F83D207B68B7
:105100001B689B687A68126823F4804323F00703C6
:1051100093607B681A687B6804331946104600F078
:1051200091FA7B681B689B687B617B681B689B6945
:105130003B617B681B681B6AFB603B681B687A6984
:1051400013437B613B6923F4407323F003033B610A
:105150003B689A683B689B691B0213433A69134397
:105160003B613B6923F4406323F00C033B613B69E3
:1051700023F4704323F0F0033B613B68DA683B683B
:10518000DB691B0213433A6913433B613B681B69AC
:105190001A013B681B6A1B0313433A6913433B61C3
:1051A000FB6823F02203FB60FB6823F08803FB60AD
:1051B0003B685A683B685B691B011343FA681343F9
:1051C000FB607B681B687A699A607B681B683A6938
:1051D0009A617B681B68FA681A627B68012283F80F
:1051E00046207B68012283F83E207B68012283F8F9
:1051F0003F207B68012283F842207B68012283F8EC
:1052000043207B68012283F83D200023184618378D
:10521000BD4680BD80B584B000AF786039607B68E2
:1052200093F83E30FB737B6893F83F30BB737B6829
:1052300093F842307B737B6893F843303B733B6851
:10524000002B10D1FB7B012B02D17B7B012B01D0EA
:10525000012369E07B68022283F83E207B680222FA
:1052600083F8422031E03B68042B10D1BB7B012B3B
:1052700002D13B7B012B01D0012355E07B68022248
:1052800083F83F207B68022283F843201DE0FB7BEC
:10529000012B08D1BB7B012B05D17B7B012B02D1DC
:1052A0003B7B012B01D001233EE07B68022283F887
:1052B0003E207B68022283F83F207B68022283F82D
:1052C00042207B68022283F843203B68002B03D0F6
:1052D0003B68042B08D00FE07B681B68012200218B
:1052E000184600F099FC16E07B681B680122042137
:1052F000184600F091FC0EE07B681B68012200213B
:10530000184600F089FC7B681B68012204211846BE
:1053100000F082FC00BF7B681B681A687B681B6812
:1053200042F001021A60002318461037BD4680BDC6
:1053300080B586B000AFF860B9607A600023FB7575
:10534000FB6893F83C30012B01D10223AEE0FB68EF
:10535000012283F83C207B680C2B00F29F8001A285
:1053600052F823F0995300089D5400089D540008FA
:105370009D540008D95300089D5400089D5400080E
:105380009D5400081B5400089D5400089D540008BB
:105390009D5400085B540008FB681B68B9681846F8
:1053A00000F0F0F9FB681B689A69FB681B6842F023
:1053B00008029A61FB681B689A69FB681B6822F007
:1053C00004029A61FB681B689969BB681A69FB68EB
:1053D0001B680A439A6164E0FB681B68B968184659
:1053E00000F040FAFB681B689A69FB681B6842F48E
:1053F00000629A61FB681B689A69FB681B6822F46B
:1054000080629A61FB681B689969BB681B691A0214
:10541000FB681B680A439A6143E0FB681B68B96834
:10542000184600F095FAFB681B68DA69FB681B6890
:1054300042F00802DA61FB681B68DA69FB681B68E6
:1054400022F00402DA61FB681B68D969BB681A693B
:10545000FB681B680A43DA6123E0FB681B68B968D4
:10546000184600F0E9FAFB681B68DA69FB681B68FC
:1054700042F40062DA61FB681B68DA69FB681B684A
:1054800022F48062DA61FB681B68D969BB681B691A
:105490001A02FB681B680A43DA6102E00123FB750C
:1054A00000BFFB68002283F83C20FB7D18461837BC
:1054B000BD4680BD80B584B000AF78603960002300
:1054C000FB737B6893F83C30012B01D10223B4E0DD
:1054D0007B68012283F83C207B68022283F83D2010
:1054E0007B681B689B68BB60BB6823F07703BB606D
:1054F000BB6823F47F43BB607B681B68BA689A6013
:105500003B681B68B3F5005F3ED0B3F5005F00F267
:105510008780B3F5805F00F08680B3F5805F7FD829
:10552000702B1AD0702B7BD8602B50D0602B77D883
:10553000502B3CD0502B73D8402B58D0402B6FD8D9
:10554000302B64D0302B6BD8202B60D0202B67D829
:10555000002B5CD0102B5AD062E07B6818683B6847
:1055600099683B685A683B68DB6800F035FB7B68EC
:105570001B689B68BB60BB6843F07703BB607B68BC
:105580001B68BA689A604FE07B6818683B68996846
:105590003B685A683B68DB6800F01EFB7B681B6851
:1055A0009A687B681B6842F480429A603CE07B68A2
:1055B00018683B6859683B68DB681A4600F092FA45
:1055C0007B681B685021184600F0EBFA2CE07B68E2
:1055D00018683B6859683B68DB681A4600F0B1FA06
:1055E0007B681B686021184600F0DBFA1CE07B68D2
:1055F00018683B6859683B68DB681A4600F072FA25
:105600007B681B684021184600F0CBFA0CE07B68F1
:105610001A683B681B681946104600F0C2FA03E09E
:105620000123FB7300E000BF7B68012283F83D206B
:105630007B68002283F83C20FB7B18461037BD4670
:1056400080BD000080B485B000AF786039607B68B1
:105650001B68FB607B68404A934213D07B68B3F1C0
:10566000804F0FD07B683D4A93420BD07B683C4A09
:10567000934207D07B683B4A934203D07B683A4A07
:10568000934208D1FB6823F07003FB603B685B68C2
:10569000FA681343FB607B682F4A93422BD07B68E8
:1056A000B3F1804F27D07B682C4A934223D07B688C
:1056B0002B4A93421FD07B682A4A93421BD07B68B7
:1056C000294A934217D07B68284A934213D07B68BB
:1056D000274A93420FD07B68264A93420BD07B68BF
:1056E000254A934207D07B68244A934203D07B68C3
:1056F000234A934208D1FB6823F44073FB603B6864
:10570000DB68FA681343FB60FB6823F080023B68A8
:105710005B691343FB607B68FA681A603B689A68B0
:105720007B68DA623B681A687B689A627B680A4A1F
:10573000934203D07B680C4A934203D13B681A69B9
:105740007B681A637B6801225A6100BF1437BD462B
:105750005DF8047B704700BF00000140000400407A
:1057600000080040000C00400004014000400140DF
:10577000004401400048014000180040001C004067
:105780000020004080B487B000AF786039607B684B
:105790001B6A23F001027B681A627B681B6A7B61CB
:1057A0007B685B683B617B689B69FB60FB6823F0FF
:1057B0007003FB60FB6823F00303FB603B681B681E
:1057C000FA681343FB607B6923F002037B613B684B
:1057D0009B687A6913437B617B68204A934203D0BC
:1057E0007B681F4A93420CD17B6923F008037B61DD
:1057F0003B68DB687A6913437B617B6923F00403B0
:105800007B617B68154A934203D07B68144A9342BC
:1058100011D13B6923F480733B613B6923F400732E
:105820003B613B685B693A6913433B613B689B6939
:105830003A6913433B617B683A695A607B68FA684E
:105840009A613B685A687B685A637B687A691A6216
:1058500000BF1C37BD465DF8047B70470000014067
:105860000004014080B487B000AF786039607B6885
:105870001B6A23F010027B681A627B681B6A7B61DB
:105880007B685B683B617B689B69FB60FB6823F41A
:10589000E043FB60FB6823F44073FB603B681B68DC
:1058A0001B02FA681343FB607B6923F020037B61D2
:1058B0003B689B681B017A6913437B617B68224AC2
:1058C000934203D07B68214A93420DD17B6923F038
:1058D00080037B613B68DB681B017A6913437B6152
:1058E0007B6923F040037B617B68174A934203D0B6
:1058F0007B68164A934213D13B6923F480633B6172
:105900003B6923F400633B613B685B699B003A6938
:1059100013433B613B689B699B003A6913433B61BE
:105920007B683A695A607B68FA689A613B685A6892
:105930007B689A637B687A691A6200BF1C37BD4630
:105940005DF8047B704700BF000001400004014087
:1059500080B487B000AF786039607B681B6A23F43D
:1059600080727B681A627B681B6A7B617B685B68FC
:105970003B617B68DB69FB60FB6823F07003FB60C5
:10598000FB6823F00303FB603B681B68FA68134362
:10599000FB607B6923F400737B613B689B681B029F
:1059A0007A6913437B617B68214A934203D07B6809
:1059B000204A93420DD17B6923F400637B613B68ED
:1059C000DB681B027A6913437B617B6923F4806384
:1059D0007B617B68164A934203D07B68154A9342E9
:1059E00013D13B6923F480533B613B6923F400539B
:1059F0003B613B685B691B013A6913433B613B6850
:105A00009B691B013A6913433B617B683A695A60A1
:105A10007B68FA68DA613B685A687B68DA637B689E
:105A20007A691A6200BF1C37BD465DF8047B704777
:105A3000000001400004014080B487B000AF7860EE
:105A400039607B681B6A23F480527B681A627B682A
:105A50001B6A3B617B685B687B617B68DB69FB6021
:105A6000FB6823F4E043FB60FB6823F44073FB60B6
:105A70003B681B681B02FA681343FB603B6923F415
:105A800000533B613B689B681B033A6913433B61CE
:105A90007B68124A934203D07B68114A934209D132
:105AA0007B6923F480437B613B685B699B017A6976
:105AB00013437B617B687A695A607B68FA68DA61B4
:105AC0003B685A687B681A647B683A691A6200BF4F
:105AD0001C37BD465DF8047B704700BF00000140E5
